:020000040800F2
:10000000D806002029020008510300085303000805
:1000100055030008570300085903000800000000BA
:100020000000000000000000000000005B0300086A
:100030005D030008000000005F0300086103000882
:10004000430200084302000843020008430200087C
:10005000430200084302000843020008430200086C
:10006000430200084302000843020008430200085C
:10007000430200084302000843020008430200084C
:10008000430200084302000843020008430200083C
:10009000430200084302000843020008FF29000849
:1000A000430200084302000843020008430200081C
:1000B000430200084302000843020008430200080C
:1000C00043020008430200084302000843020008FC
:1000D00043020008430200084302000843020008EC
:1000E00043020008430200084302000843020008DC
:1000F00043020008430200084302000843020008CC
:1001000043020008430200084302000843020008BB
:1001100043020008430200084302000843020008AB
:10012000430200084302000843020008430200089B
:10013000430200084302000843020008430200088B
:10014000430200084302000843020008430200087B
:10015000430200084302000843020008430200086B
:10016000430200084302000843020008430200085B
:100170004302000843020008650300084302000828
:10018000430200084302000800F002F800F03CF8C7
:100190000AA090E8000C82448344AAF10107DA45E2
:1001A00001D100F031F8AFF2090EBAE80F0013F0F8
:1001B000010F18BFFB1A43F001031847E05D000070
:1001C000005E0000103A24BF78C878C1FAD8520700
:1001D00024BF30C830C144BF04680C6070470000C1
:1001E0000023002400250026103A28BF78C1FBD840
:1001F000520728BF30C148BF0B6070471FB504F0DD
:10020000CDFA1FBD10B510BD04F09BF91146FFF7E4
:10021000F5FF00F029F804F0B9F903B4FFF7F2FF95
:1002200003BC04F0BDF900000948804709480047B5
:10023000FEE7FEE7FEE7FEE7FEE7FEE7FEE7FEE796
:10024000FEE7FEE704480549054A064B70470000F3
:100250006304000889010008D8000020D8060020A7
:10026000D8020020D802002000F0FBF82C4840F60D
:100270002F410068B0FBF1F0B0F1807F3CD220F05C
:100280007F414FF0E020491E4161264AF021117064
:100290000021816107210161012001F029FB01F0AA
:1002A00085FC002001F0FEFD00214FF4FC6001F010
:1002B00060FD1D4801F0B0FB03F0FAFAFF281CD0E6
:1002C0001AA20021084601F0FAFD0021EF2340F2B6
:1002D0003F12084601F010FE01F06CFD012000F015
:1002E000ECF90121144800F0E4FA012000F0DAF9F9
:1002F000012000F0E2F9FEE7FEE710A2E1E701B518
:1003000012480099016001680029FCD108BD0F481E
:100310000168002902D00168491E01607047000091
:100320000400002023ED00E04C00002043616D65D7
:100330007261204F4B2100002864024043616D65CB
:100340007261204661696C65640000000000002055
:100350007047FEE7FEE7FEE7FEE77047704770472D
:10036000FFF7D5BF10B5082000F0D4F910B1082070
:1003700000F0D8F9102000F0CDF910B1102000F0F5
:10038000D1F9012000F0C6F970B1012001F0E1FAC5
:100390000021EF2340F23F12084601F0ADFD01F0CD
:1003A00009FD012000F0BEF9042000F0B3F9002897
:1003B00004D0BDE81040042000F0B4B910BD000026
:1003C0000CB500205649019000900A6842F4803232
:1003D0000A604FF4A0630A6802F400320092019AA6
:1003E000521C0192009A12B9019A9A42F3D10A68FA
:1003F000920334D50120009049484030026842F011
:10040000805202604748026842F4804202604448D9
:10041000083002680260026842F40042026002682A
:1004200042F4A0520260031F3F4A1A600A6842F079
:1004300080720A600A689201FCD53C4A40F205616C
:100440001160016821F003010160016841F00201BF
:1004500001600168C1F381010229FAD10CBD00904D
:100460000CBD334810B5016841F4700101602C489F
:10047000016841F48031016001688903FCD5284A94
:1004800000210832116002682A4B1A400260244B96
:10049000294A1B1D1A60026822F48022026020484B
:1004A0000C300160FFF78CFF21494FF0006080396C
:1004B000086010BD70B51A4C083420681F4A10F04F
:1004C0000C011F4804D01F4D042903D0082903D074
:1004D00002601BE0056019E01149091D0B68C3F3B8
:1004E00080560B6803F03F0316B1B5FBF3F201E051
:1004F000B2FBF3F20B680968C3F388135A43C1F3E4
:100500000141491C4900B2FBF1F1016021680C4A2C
:10051000C1F30311121D515C0268CA40026070BD34
:10052000003802400070004008544007003C024080
:1005300088ED00E0FFFFF6FE103000240024F400F8
:100540000400002040787D012749084327490860BE
:10055000704770B50F21C478027801234FF0E02670
:10056000E4B1224C246804F4E064C4F5E064C4F30C
:100570000724C4F10405E1404478AC4085780D407F
:1005800025431B4C29011155007800F01F018B40B9
:10059000400906EB8000C0F8003170BD02F01F007A
:1005A0008340500906EB8000C0F8803170BD114ACD
:1005B000114001430D48001F016070470B4A121D96
:1005C0000029116801D0014300E0814311607047A8
:1005D0004FF0E0210428086903D020F004000861EE
:1005E000704740F00400FAE70000FA050CED00E067
:1005F00000E400E080FFFF1F4C4800210160C16063
:100600001F2242618161C16101624162704730B560
:10061000464A116844F2010399431160136840F699
:10062000F2718B4301884488C588214384882C4318
:10063000214304892143448980892143014319438B
:10064000116030BD0021018041808180C180018125
:1006500041818181704701684FEA314233490A6222
:1006600040684FEA304048627047304900280868C7
:1006700002D040F0040001E020F004000860704760
:10068000C178006861F31F60284988617047274975
:100690000028086802D040F0080001E020F00800BF
:1006A0000860704721490028086802D040F4804063
:1006B00001E020F48040086070471C490028086869
:1006C00002D040F0010001E020F001000860704716
:1006D0001648806A7047154A0029D16801D0014345
:1006E00002E0C04380B20140D16070470246002062
:1006F000130B0E49012B06D0022B06D009691142BB
:1007000000D0012070478968F9E74968F7E7074991
:10071000486170470549024600200969114200D02E
:1007200001207047014948617047000000000550F2
:100730002DE9F043016821F0010101600021016011
:1007400041608160C160016121214161BA49BA4AB9
:100750003D251039904202D18D60BDE8F083B64A44
:100760004FF474661832904201D18E60F5E7B24AB8
:100770004FF474173032904201D18F60EDE7AE4AEA
:100780004FF0746C4832904202D1C1F808C0E4E7DF
:10079000A94BAA4A6033984201D1CA60DDE7A64C52
:1007A000A74B7834A04201D1CB60D6E7DFF888822E
:1007B000A44C08F19008404501D1CC60CDE7DFF8AA
:1007C00078824FF03D5908F1A808404502D1C1F8A0
:1007D0000C90C2E79C49DFF870820839404501D18E
:1007E0000D60BAE7984D1835A84201D10E60B4E704
:1007F000954D3035A84201D10F60AEE7924D483596
:10080000A84202D1C1F800C0A7E78F4D8E496035DC
:10081000091FA84201D10A609FE78B4A78329042B3
:1008200001D10B6099E7884A9032904201D10C6067
:1008300093E7854AA83290428FD1C1F800908CE7A7
:1008400030B50368814ACC6813400A682243D1E975
:1008500005452C432243CC6922430C6A22434C6A4F
:1008600022438C6A22434C6B22438C6B22431A43F3
:100870000260426922F00703D1E90B2422431A43A4
:1008800042610A6942604A6882608968C16030BD1D
:100890000021016041608160C1600161416181614D
:1008A000C161016241628162C1620163416381632E
:1008B00070470029016802D041F0010101E021F0F8
:1008C0000101016070470029016802D041F4004134
:1008D00001E021F40041016070470029016802D065
:1008E00041F0200101E021F02001016070474160EA
:1008F0007047406880B27047002A026802D042F414
:10090000002201E022F40022026001617047002908
:10091000016802D041F4802101E021F480210160CE
:1009200070470AB101617047C160704701460020FD
:100930000968090300D501207047014600200968B5
:10094000C90700D001207047406900F038007047A7
:1009500002463D4B00209A4202D2374A103A01E04B
:10096000394A103A8B0001D5526800E01268384BC2
:100970001A400A4200D001207047334A904202D206
:100980002D48103801E030481038314A8B0001EA18
:10099000020101D5C16070478160704710B50C0637
:1009A00001F01E0304D54AB1446944F08004446157
:1009B00080290CD042B10168194307E0426922F056
:1009C00080024261802902D001689943016010BD14
:1009D00030B51D4A0024904202D2174B103B01E073
:1009E000194B103B1B4A114205D01E2202EAD125A9
:1009F00002682A4002E0406900F08002880001D5C8
:100A0000586800E01868124B1840084201D002B143
:100A10000124204630BD0C4A904202D206481038CC
:100A200001E0094810380A4A8B0001EA020101D5A9
:100A3000C160704781607047106002403D00002037
:100A4000400F002000003D20106402403F801CF059
:100A50007D0F7D0F3C0F3C0F374900200860091DBA
:100A60000860091D0860091D0860334933481431C6
:100A70000860704730B530498379026853B30B681A
:100A800093430B600A1D13680468A3431360027943
:100A90000A441368046823431360274A0832136822
:100AA0000468A3431360131D1C680568AC431C60F5
:100AB0004479102C05D021440A68006802430A607A
:100AC00030BD116804682143116019680068014352
:100AD000196030BD0079084401689143016030BD60
:100AE0000021016001710C2242718171704712492D
:100AF00010310A6802430A60704701460E4A00201E
:100B0000143212680A4200D0012070470A49143199
:100B100008607047084A014600201268064B0A40E8
:100B200014331B680B4202D0002A00D0012070470A
:100B30000149143108607047003C0140FFFF7F000D
:100B40004FF0204202EB800140B143F2D200086036
:100B50006FF070404860C1F80401704743F2DB0059
:100B60001060F5E730B5D0E901121143D0E9032355
:100B70001A43114342690368114382691143C269F0
:100B80001143026A1143426A1143826A1143C26AE5
:100B90001143026B11434FF0204242F82310816849
:100BA000082906D1016802EB81010B6843F040037C
:100BB0000B60416BD1E9003443EA04138C688D89E2
:100BC000240244EA054423430C8A43EA04530C7D7F
:100BD000896943EA04630B43016802EB81014B60BE
:100BE000C16AB1F5804F07D000686FF0704102EB29
:100BF0008000C0F8041130BD816B0068D1E9003479
:100C000043EA04138C680D8A240244EA0554234302
:100C10000C7D896943EA046302EB80000B43C0F852
:100C2000043130BD10B500210222C0E900128160FC
:100C3000C160016141618161D202C161C0E90812F4
:100C40005200C0E90A210163436B0F221A60436B13
:100C50005A60446BFF23A360446BE260446B2261E3
:100C6000446B6261446BA161846B2260846B62603F
:100C7000846BA360836BDA60836B1A61836B5A6148
:100C8000806B816110BD4FF0204202EB8000002993
:100C9000016802D041F0010101E0C04A1140016049
:100CA000704710B5182440234FF020414FF0FC321C
:100CB000102805D041F8804F4B608A60CA6010BD93
:100CC0000C664B668A66CA6610BD30B5D0E9011263
:100CD0001143D0E903231A431143426941EA4221F7
:100CE000826941EA4231C26941F00804D2E9001345
:100CF00041EA03211389127B1B0443EA0262036A5F
:100D00001143D3E9002542EA05221D891B7B2D04EE
:100D100045EA03631A4303684FF02040102B04D0C8
:100D200040F8804F8160C26030BD04668166C26653
:100D300030BD10210160002141608160C16001610E
:100D400041618161C269FC211160C2695160C2695F
:100D50009160C269D160026A1160026A5160026AE0
:100D60009160006AC16070474FF0204251B1102875
:100D700004D052F8800F40F004000AE0106E40F0FA
:100D800004000AE08549C91E102804D052F8800FDB
:100D9000084010607047106E0840106670474FF0B2
:100DA000204251B1102804D052F8800F40F040008A
:100DB0000AE0106E40F040000AE078493F39102800
:100DC00004D052F8800F084010607047106E084041
:100DD000106670474FF02041102802D0D1F89400DF
:100DE0007047486F70476E481821016000214160CC
:100DF0004FF0FC318160C1600161704710B5D0E9EE
:100E0000001241EA42228168102343EA41310A4339
:100E100063490A60C268D2E9003443EA04231489B2
:100E2000127B240444EA026213438B600269D2E914
:100E3000003443EA04231489127B240444EA026246
:100E40001343CB604069D0E9002342EA03220389BF
:100E5000007B1B0443EA006002430A6110BD0021CD
:100E6000016041608160C268FC211160C26851600C
:100E7000C2689160C268D160026911600269516004
:100E8000026991600269D1604269116042695160F2
:100E9000426991604069C160704741490028086813
:100EA00002D040F0040002E03C4AD21E104008602C
:100EB000704710B54FF480744FF020436AB110288A
:100EC00003D0A04204D1843303E0586E08430CE001
:100ED000A43318680843186010BD102803D0A0423E
:100EE00005D1843304E0586E8843586610BDA4339E
:100EF00018688843EFE7034600204FF02042102B8C
:100F000008D0B3F5807F07D0D2F8A4200A4200D0E1
:100F100001207047526EF9E7D2F88420F6E74FF0CF
:100F20002042102807D0B0F5807F08D0A432106886
:100F3000884310607047506E884350667047843213
:100F4000F5E7034600204FF02042102B0CD0B3F5FC
:100F5000807F0BD0D2F8A4200A4202EAD10102D04D
:100F6000002900D001207047526EF5E7D2F88420A6
:100F7000F2E74FF02042102808D0B0F5807F0AD069
:100F8000A432106820EAD10010607047506E20EA49
:100F9000D100506670478432F3E70000FEFF0F0077
:100FA000A00000A07C4910B5884206D10121084666
:100FB00000F057FA002101204FE07849884206D11D
:100FC0000121022000F04DFA0021022045E0744981
:100FD000884206D10121042000F043FA00210420B8
:100FE0003BE07049884206D10121082000F039FA1F
:100FF0000021082031E06C49884206D101211020EF
:1010000000F02FFA0021102027E06849884206D11D
:101010000121202000F025FA002120201DE0644954
:10102000884206D10121402000F01BFA0021402017
:1010300013E06049884206D10121802000F011FAB6
:101040000021802009E05C4988420AD184150121F1
:10105000204600F006FA00212046BDE8104000F0CE
:1010600000BA10BDF0B50023012403270D6804FA6F
:1010700003F21540954242D1D0F800C05E0007FA55
:1010800006F52CEA050CC0F800C091F804C0D0F8B1
:1010900000E00CFA06FC4CEA0E0CC0F800C091F817
:1010A00004C0BCF1010F02D0BCF1020F1FD1D0F877
:1010B00008C02CEA050CC0F808C091F805C0D0F8AB
:1010C00008E00CFA06FC4CEA0E0CC0F808C0D0F898
:1010D00004C02CEA020CC0F804C0426891F806C0B3
:1010E0000CFA03FC1FFA8CFC42EA0C024260C26854
:1010F000AA43C260CA79C568B2402A43C2605B1C79
:10110000102BB3D3F0BD4FF6FF71016000210171C8
:1011100041718171C171704708B541F4803200920C
:10112000C261C1610099C161C169C069009008BD17
:101130000246002012690A4200D00120704700696F
:1011400080B270470246002052690A4200D0012056
:101150007047406980B27047018370474183704790
:101160000AB101837047418370474161704742690A
:101170004A40426170474B07DB0E9A40C90810B5E0
:1011800000EB8100016A0F249C40A1430162016AC7
:101190001143016210BD0000000002400004024043
:1011A00000080240000C02400010024000140240FF
:1011B00000180240001C024000200240EA4801687A
:1011C00041F001010160E84A002108321160026823
:1011D000E64B1A400260031DE54A1A60026822F4D9
:1011E00080220260E0480C3001607047DE49002236
:1011F000891C0A70087070470246002051090129B5
:101200000CD002290CD0D8497431096802F01F02B1
:10121000012393400B4200D001207047D249F4E7EC
:10122000D1497031F1E718B500204FF4A064009067
:101230003120FFF7E1FF0099491C0091A14201D044
:101240000028F5D03120FFF7D7FF002800D001207B
:1012500018BDC5490A6822F0F80242EAC0000860D9
:101260007047C44908607047BF49002270310A7056
:101270000A70012802D0042801D1052008707047A7
:10128000BD490860704741EA82115A0810B5BB4B4E
:10129000029C03EB02421143014341EA0460B2495C
:1012A000091D086010BDB34908667047800140EA17
:1012B0000170AD49843108607047AE498866704757
:1012C000AC49C8647047A84A08321368084323F041
:1012D000EC63184310607047A34A08321368084350
:1012E00023F078431843106070479F4A0832116812
:1012F00021F003010143116070479B4808300068EA
:1013000000F00C007047984A0832116821F0F00193
:10131000014311607047944A0832116821F4E0518A
:10132000014311607047904908310A6822F4604215
:1013300042EAC0000860704770B58B4A08321168F5
:101340008F4C11F00C0104D08E4E042903D00829D3
:1013500003D004601BE0066019E08349091D0B6897
:10136000C3F380550B6803F03F0315B1B6FBF3F3ED
:1013700001E0B4FBF3F30C680968C4F38814634319
:10138000C1F30141491C4900B3FBF1F1016011684F
:101390000F2303EA11117C4B5C5C0168E140416062
:1013A0001468072505EA94241C5D21FA04F484607E
:1013B000126805EA52329A5CD140C16070BDC0F338
:1013C0000121032908D1684A0832116821F4F81371
:1013D0006E49014019431160634970310A68C0F3D6
:1013E0000B0002430A607047634944390860704744
:1013F00061494039086070476549086070475A4A3A
:1014000030320029116801D0014300E081431160AE
:101410007047554A34320029116801D0014300E079
:10142000814311607047504A38320029116801D059
:10143000014300E08143116070474B4A403200296C
:10144000116801D0014300E0814311607047464AB2
:1014500044320029116801D0014300E0814311604A
:101460007047414A10320029116801D0014300E061
:101470008143116070473C4A14320029116801D041
:10148000014300E0814311607047374A1832002958
:10149000116801D0014300E0814311607047324A76
:1014A00020320029116801D0014300E0814311601E
:1014B00070472D4A24320029116801D0014300E011
:1014C000814311607047284A50320029116801D0C9
:1014D000014300E0814311607047234A54320029E0
:1014E000116801D0014300E08143116070471E4A3A
:1014F00058320029116801D0014300E08143116096
:101500007047194A60320029116801D0014300E098
:10151000814311607047144A64320029116801D078
:10152000014300E08143116070470F4A0D320029EA
:10153000117801D0014300E08143117070470A48DF
:101540007430016841F08071016070470146064ABD
:1015500000200C3212680A4200D001207047024974
:101560000E3108707047000000380240FFFFF6FEA1
:101570001030002400004742800E47420000FFFF69
:101580000024F40040787D0118000020FFFCFF0FCC
:101590005C014742B64910B588420AD18414012142
:1015A0002046FFF786FF2046BDE810400021FFF7E8
:1015B00080BFB049884202D10121041404E0AE4941
:1015C00088420AD10121C4132046FFF768FF204654
:1015D000BDE810400021FFF762BF10BD30B50288A2
:1015E0004C8802F441530A88CD8822438C882C43CE
:1015F00022430C8922434C8922438C892243CC8983
:1016000022431A430280828B22F400628283098A79
:10161000018230BDF0B502220023858B01244FF2F8
:101620004006354085830284858B8E68022E3ED02D
:101630008A8802B10224914A13681B0203D51368F9
:1016400023F4000313608D4A7C3213681268C3F3DD
:1016500088138A4EC2F30272361F3668884F06F02E
:101660003F06B7FBF6F65E43B6FBF2F2CB88B3F566
:10167000007F2CD06301B2FBF3F200BF02EB8202C9
:101680008B685200B2FBF3F2521D92B20A23B2FBF6
:10169000F3F202F00103D21A4FF6FF74C2F34F02C5
:1016A00004EA0323941EFE2C01D302220023CC88DB
:1016B0001A43144304840A884B881A438B88898907
:1016C0000B431A432A4342F400618183F0BD120A9E
:1016D000D4E70021018041808180C1800181418166
:1016E0008181C181072101827047002101804180F1
:1016F0008180C18002228260818170470029018837
:1017000002D041F0400101E021F04001018070472A
:101710000029818B02D041F4806101E021F48061D5
:1017200081837047028822F40062028002880A43A3
:1017300002807047B1F5804F018803D021F48041C9
:101740000180704741F48041FAE7A1F57E420188AB
:10175000FF3A02D041F4807101E021F480710180F0
:1017600070470029818802D041F0040101E021F096
:101770000401818070470029818802D041F0100166
:1017800001E021F010018180704730B5838B002289
:101790004FF240042340838302230384848B0B880D
:1017A0004FF48075B3F5007F00D003B92A464B880B
:1017B0008D8889892B4311430B43234343F40061F4
:1017C000818330BD808970478181704700290188FD
:1017D00002D041F4005101E021F400510180704732
:1017E000018841F4805101807047012901D0008BAC
:1017F0007047808A7047008A7047002A828801D02B
:101800000A4300E08A4382807047090901238B4024
:10181000002A828899B201D00A4300E08A4382807C
:1018200070470246002012890A4200D0012070470A
:10183000C9430181704710B501F00F04012203462E
:1018400002FA04F4002009098A4091B29A88A4B2ED
:101850000A401989214202D0002A00D0012010BD7F
:1018600001F00F0201219140C9430181704700003E
:101870000030014000380040003C00400838024081
:1018800040787D0110B501218C032046FFF711FE41
:101890002046BDE810400021FFF70BBE114908604B
:1018A000704710B58A07130F21F003040F220D496A
:1018B0009A40083121440C6894430C600A689840AF
:1018C00002430A6010BD0849086070470749086074
:1018D00070470449002020310968C90500D501205E
:1018E0007047000000380140DC0027420004274216
:1018F0001CB504464648012150F82400FFF77FFD3F
:1019000043480021083830F81400009001208DF879
:1019100004008DF806108DF8070002208DF80500F0
:101920003C48694650F82400FFF79CFB1CBD384931
:10193000384A083931F8101052F8200001837047F6
:101940003349344A083931F8101052F820004183E5
:101950007047304951F820104A692D4B083B33F845
:10196000100042404A61704770B5044628480E4650
:101970000C3886B050F824000121FFF740FD01210A
:101980008803FFF764FD224800258DF810501038B9
:101990008DF8135030F8140003901E4803A9001F5F
:1019A00050F82400FFF75EFB012E25D118481338AC
:1019B000015D401E005DFFF774FF15480E3830F8DA
:1019C000140000908DF8045008208DF805000125C2
:1019D0008DF806506846FFF74DF80D481238005D47
:1019E0008DF808000F208DF809008DF80A008DF899
:1019F0000B5002A8FEF7ADFD06B070BD0449054AC4
:101A00001039121F31F8101052F82000FFF790BB68
:101A1000BC4700082C000020FE49486070474FF08A
:101A2000C0421080FC480180704710B5012196B07B
:101A30000846FFF7F8FC01218C032046FFF707FD5D
:101A400000210920CDE910100120CDE9121010204D
:101A5000CDE90210049100020F91CDE90810149114
:101A6000159100910191059106914000CDE90A047C
:101A70000FA80791CDE90C100E906846FFF772F899
:101A800001210020FFF7FFF816B010BD7CB5012141
:101A90001820FFF7B4FC4CF23370009002208DF850
:101AA00004008DF8050000208DF80600DB4C8DF851
:101AB000070069462046FFF7D5FA0C220021204690
:101AC000FFF759FB0C2201212046FFF754FB0C22A3
:101AD00004212046FFF74FFB0C2205212046FFF78B
:101AE0004AFB0C2208212046FFF745FB0C22092166
:101AF0002046FFF740FB0C220A212046FFF73BFB64
:101B00000C220E212046FFF736FB0C220F21204627
:101B1000FFF731FB4FF68070C14D009069462846B3
:101B2000FFF7A0FA0C2207212846FFF724FB0C221E
:101B300008212846FFF71FFB0C2209212846FFF742
:101B40001AFB0C220A212846FFF715FB0C220B2159
:101B50002846FFF710FB0C2211462846FFF70BFB27
:101B60000C220D212846FFF706FB0C220E212846E9
:101B7000FFF701FB0C220F212846FFF7FCFA80201B
:101B8000009069462046FFF76DFA0C220721204697
:101B9000FFF7F1FAE014009069462046FFF762FA79
:101BA0000C220B212046FFF7E6FA7CBD70B5FFF74B
:101BB0006DFFFFF73AFF9B4D40242C80052000F07D
:101BC0003CFDA81C04801E2000F037FD2C80052061
:101BD00000F033FD21210720FFF721FF0121002024
:101BE000FFF71DFF23210720FFF719FF0021102019
:101BF000FFF715FF032000F020FD33210720FFF73A
:101C00000EFF46F238011120FFF709FF4FF4C061C3
:101C10000220FFF704FF4AF6A4010320FFF7FFFEAE
:101C200000210C20FFF7FBFE40F60C010D20FFF712
:101C3000F6FE4FF42C510E20FFF7F1FEB8211E20C6
:101C4000FFF7EDFE42F63F110120FFF7E8FE00210D
:101C50001020FFF7E4FE00210520FFF7E0FE002141
:101C60000620FFF7DCFE4EF61C711620FFF7D7FEAC
:101C700003211720FFF7D3FE40F233210720FFF79F
:101C8000CEFEC0210B20FFF7CAFE00210F20FFF778
:101C9000C6FE00214120FFF7C2FE00214220FFF7CF
:101CA000BEFE00214820FFF7BAFE40F23F1319465E
:101CB0004920FFF7B4FE00214A20FFF7B0FE0021C3
:101CC0004B20FFF7ACFE4FF46F414420FFF7A7FE17
:101CD00000214520FFF7A3FE19464620FFF79FFE8F
:101CE00040F207713020FFF79AFE4FF40173194656
:101CF0003120FFF794FE19463220FFF790FE40F2A4
:101D0000025421463320FFF78AFE611D3420FFF77D
:101D100086FE19463520FFF782FE19463620FFF76A
:101D20007EFE21463720FFF77AFE40F20233194645
:101D30003A20FFF774FE19463B20FFF770FE0021A2
:101D40002320FFF76CFE00212420FFF768FE4FF4EC
:101D500000412520FFF763FE00214F20FFF75FFEC3
:101D600000214E20FFF75BFE2A482A4908304860D0
:101D700070BD03B5BDF8001026480180BDF8041001
:101D800041800CBD234A1388038050880880704727
:101D900001B5BDF800001F49088008BD01B5BDF8B8
:101DA00000001C49488008BD1A48406870471A491D
:101DB000088070474FF0C04122200880704700B56E
:101DC00003464E20FFF72BFE19464F20FFF727FE54
:101DD0004FF0C0412220088000BD2DE9F043944619
:101DE0008846814600260C4F0A4D33E000242CE043
:101DF00008EB0600C1B209EB040080B2FFF7DFFF79
:101E0000686881880C20B1FBF0F0C200802090400F
:101E1000204109E03C00002000000260000C02406C
:101E200000100240180802403CF81620104201D170
:101E30000C2905D90120A040024203D10C2901D967
:101E4000688800E028883880641C68688088A04220
:101E5000CED8761C6868C088B042C7D8BDE8F08389
:101E6000F94B10B45B68203AD2B21C68DB8853434C
:101E700004EB430210BCB0E770B5064640F23F14D5
:101E8000F14D08E0E1B220223046FFF7E9FF686833
:101E90008088201A84B26968601C80B28988884270
:101EA000F0D270BD00214FF0C04322221A80E74AD1
:101EB0004FF496331080491C9942FBD370472DE9AB
:101EC000F041164604460D46DF4F4FF49F780EE072
:101ED000E9B22046FFF7C4FF7868818821448CB2BC
:101EE000444503D9C0880024284485B2761C327842
:101EF000002AEDD1BDE8F08170B50C4605461646C6
:101F000041EA03214420FFF78AFD29464520FFF7D7
:101F100086FD31464620FFF782FD21462846BDE872
:101F200070404CE710B51446FFF749FFC7480480DE
:101F300010BD4FF0C04122200880C448008870477F
:101F400000B5FFF73CFF5DF804EBF2E741F2180142
:101F5000032064E52DE9FE4F141A4FF0000C002C0D
:101F600000DC841A0FFA84F95C1A002C00DCCC1A0D
:101F70000FFA84F807B20EB24FF0FF34824203D357
:101F800001208346019001E0A34601948B4203D3D4
:101F900001208246009001E0A2460094C1454FF026
:101FA000000009DB8246019009EBD9704C4640F3F2
:101FB0004F05CDF8088027E083460020009008EB0D
:101FC000D870444640F34F05CDF808901CE09E4A77
:101FD000F1B2B8B21288FFF7A5FF0298284405B203
:101FE000A54207DB281B05B20198384407B20098C8
:101FF000304406B207EB0B0007B206EB0A000CF107
:10200000010C06B20FFA8CFCA445E0DDBDE8FE8FA2
:10201000F0B51D4616460F4604460B46FFF79AFFDD
:102020002B46324619462046FFF794FF22462B46A0
:1020300039461046FFF78EFF32462B463946BDE83B
:10204000F040104686E72DE9FE4F834603208A467E
:10205000A0EB4209002514467EE000BF0AEB040015
:10206000C1B202900BEB0500019080B2FFF7A7FE12
:102070004FF0C04722263E80DFF8CCC1BCF80000FC
:10208000DFF8C881A8F80000AAEB0400C1B20090F4
:10209000019880B2FFF793FE3E80BCF80000A8F8DC
:1020A00000000298C1B2ABEB0500019080B2FFF7CF
:1020B00086FE3E80BCF80000A8F800000098C1B27F
:1020C000019880B2FFF77BFE3E80BCF80000A8F8C4
:1020D00000000AEB0500C1B202900BEB0400019076
:1020E00080B2FFF76CFE3E80BCF80000A8F800004C
:1020F000AAEB0500C1B20090019880B2FFF75FFE25
:102100003E80BCF80000A8F800000298C1B2ABEB1A
:102110000400019080B2FFF752FE3E80BCF8000040
:10212000A8F800000098C1B2019880B2FFF747FEFE
:102130003E80BCF80000A8F80000B9F1000F04DAF6
:1021400009EB850000F1060905E0291B09EB810078
:1021500000F10A09641E6D1CA5427FF67FAF55E7AA
:10216000F0B500224FF0C04322211980364C374D84
:1021700001234FF4166C002150F8227003FA01F687
:10218000374208D026882E80491C2029F4D3521CBF
:102190006245F0D3F0BD6688F5E710B541888288C6
:1021A00041EA02424189838941EA0341521A4318B4
:1021B000540841F208010320FFF731FC4FF0C04101
:1021C000222008800020214A04E000BF33F8021BCF
:1021D0001180401CA042F9D3BDE8104041F2180123
:1021E00003201CE418B5DBB2039CFFF785FE4FF01B
:1021F000C04122200880002014494FF496320090FC
:1022000034F8100008800020401C80B26428FBD302
:102210000098401C00909042F2D318BD2DE9F04187
:1022200007461446D01BC2B28C46A3EB0C001D46D9
:10223000401CC3B2521C3846FFF75EFEA74207D2CD
:10224000FEB2E7B206E000003C00002000000260A1
:10225000E6B2FFB2AC4502D26446AC4600E02C4682
:10226000DFF8EC83BE420ED8254607E0B8F8002020
:1022700029463046FFF756FE6D1CEDB26545F5D98F
:10228000761CF6B2EEE735E62DE9F0470E46074636
:1022900000241546C2F10108701983B207EB040A45
:1022A00081B2A7EB04091FFA8AF21FFA89F0FFF73F
:1022B00051FE701B83B281B21FFA8AF21FFA89F0B5
:1022C000FFF748FE301983B207EB050A81B2A7EB8E
:1022D00005091FFA8AF21FFA89F0FFF73BFE301B4F
:1022E00083B281B21FFA8AF21FFA89F0FFF732FE39
:1022F000B8F1000F05DA08EB440000F10308641C94
:1023000006E0611B08EB4100641C00F105086D1E2E
:10231000AC42C1DDBDE8F08730B50D460446022968
:102320000DD308E020886188241D89B26388228843
:1023300080B2FFF70FFE6D1E2D042D0CF2D130BDC3
:102340002DE9F04391460F4604468046022925D3E5
:10235000B4F90060B4F9025010E0241DA9B26088FD
:10236000284483B22088304482B2B0B2FFF7F2FD35
:102370002088304406B26088284405B27F1E3F049E
:102380003F0CEAD1B9F1000F08D0ABB2B2B2B8F845
:102390000210B8F80000BDE8F043DBE55EE530B5BB
:1023A0000D460446FFF7B8FF04EB8500001F618867
:1023B000438802882088BDE83040CBE50022BFE793
:1023C0000122BDE72DE9F04F04462DED028BE7B069
:1023D000B0F80090CDF8989140880E4682460121D1
:1023E00014E000BF04EB8102669B52889A4200D23F
:1023F00066924A4500D9914634F82120824200D2A3
:102400001046524500D99246491C89B2B142E9D3DF
:102410008F494A88ADF89021BDF890210A80B4E038
:102420000025701E1FFA80F82F4651E0584602F032
:10243000E1F8CDE9640141EC180B34F9270002F012
:10244000C2F853EC182B02F0E9F80CD2DDE9640174
:1024500041EC180B34F9280002F0B5F853EC182BB6
:1024600002F066F919D9DDE9640141EC180B34F981
:10247000280002F0A8F853EC182B02F0CFF824D271
:10248000DDE9640141EC180B34F9270002F09BF8F8
:1024900053EC182B02F04CF917D804EB880004EB2E
:1024A0008701B0F90200B1F90210421A34F927008D
:1024B000ABEB00035A4334F92830181A92FBF0F0C2
:1024C00008442DF815006D1CADB2B8467F1CBFB294
:1024D000B742ABD300206A1E0FE0694601EB400C07
:1024E0003DF81030BCF80270BB420AD921F81070D8
:1024F000ACF8023008B1401E80B29042EDDB0027FC
:102500003EE0401CF8E73DF817106846494539D2CF
:1025100000EB4708669BB8F802209A422ED99942F0
:1025200001D220F817304A4501D9A8F8029048494D
:102530004988ADF89011BDF8902145490A80B8F856
:1025400002103DF817000023081A82B25846FFF720
:1025500001FD3F480088ADF89001BDF890113C485E
:10256000018098F8021002885846FFF7DBFC3848D3
:102570001DF8171002885846FFF7D4FCBF1CBFB2E5
:10258000AF42C0D30BF1010080B283465045FFF447
:1025900047AF2F480188ADF89011BDF89011018028
:1025A00067B0BDEC028BBDE8F08F2A480088704709
:1025B00010B500211020FFF732FA00211120FFF79B
:1025C0002EFA00211220FFF72AFA00211320FFF72C
:1025D00026FA142000F031F841F2B0711020FFF714
:1025E0001EFA40F237111120FFF719FA052000F00A
:1025F00024F840F239111220FFF711FA052000F0FB
:102600001CF84FF4E8511320FFF709FA1321292091
:10261000FFF705FA052000F010F8BDE8104040F281
:1026200073110720FFF7FBB940F273110720FFF782
:10263000F6B900210720FFF7F2B901B581B00649CC
:10264000019848430090002801D0401EFAE70CBDD5
:102650003C00002000000260A086010070B5EE4C36
:10266000054602212046FFF7DCF80028F9D029466C
:102670002046FFF7A9F801212046FFF7D2F80028ED
:10268000F9D02046FFF79EF8C0B270BD002100E0EF
:10269000491C8142FCD3704770B5E04D08212846A3
:1026A000FEF75CFD0A20FFF7F1FF9020FFF7D6FF51
:1026B0000A20FFF7EBFFFF20FFF7D0FF4FF6FF7177
:1026C00001EA00240020FFF7C9FF204484B208215A
:1026D0002846FEF741FD0A20FFF7D8FF200970BD0C
:1026E00070B5CE4D08212846FEF738FD0A20FFF7C9
:1026F000CDFFD020FFF7B2FF0A20FFF7C7FF002071
:10270000FFF7ACFF4FF6FF7101EA00240020FFF74E
:10271000A5FF204484B208212846FEF71DFD2009AC
:1027200070BD10B5FFF7B8FFBD4CA080FFF7D8FF14
:10273000E080012010BD08B500214FF00060FDF7DA
:1027400036FF4FF4A060FDF7FFFE02208DF8010078
:1027500000208DF8020001208DF803006846FDF787
:10276000F8FE08BDF0B58BB001210620FEF747FE4C
:1027700002268DF8046001248DF8054000254FF4F1
:10278000E050A84F8DF8065000908DF8074069463C
:102790003846FEF767FC06220A213846FEF7EBFCB6
:1027A00006220B213846FEF7E6FC06220C213846AD
:1027B000FEF7E1FC0121C803FEF73FFE964F3846C5
:1027C000FEF7E8FEADF808504FF48270ADF80A004D
:1027D000ADF810406002ADF812001820ADF81400FA
:1027E0000720ADF80C50ADF81800ADF80E60ADF84C
:1027F000165002A93846FEF7F1FE01213846FEF7D1
:102800007DFF8DF804408DF805400820834F8DF83A
:10281000065000908DF8074069463846FEF722FCC6
:1028200008213846FEF798FC8DF804508DF80540D5
:102830008DF8065040268DF80740694638460096C8
:10284000FEF710FC01218803FEF701FE062103209C
:10285000FFF727F88DF820500C208DF821000796FF
:102860008DF8224007A8FEF705F917208DF82400FF
:102870000F208DF825008DF826008DF8274009A837
:10288000FDF767FE0BB0F0BD2DE9F04142F2107785
:10289000B2FBF7F68046154606F13000C2B2A1F24F
:1028A0003F100C464042C1B24046FFF7D9FA07FB41
:1028B00016504FF47A76B0FBF6F03030C2B2C4F561
:1028C0009370C1B24046FFF7CBFAB5FBF6F006FBBA
:1028D00010506426B0FBF6F03030C2B2A4F20D10F6
:1028E0004042C1B24046FFF7BBFAB5FBF6F006FB2B
:1028F00010500A26B0FBF6F2C4F1F400C1B2303237
:102900004046FFF7ADFAB5FBF6F006FB1052C4F1F6
:10291000DB00C1B24046BDE8F0413032FFF7A0BA5B
:102920002DE9F0418AB0002540213C48FEF700FC2B
:1029300028B9FFF7F6FEDFF8E8806C4603E00020D8
:102940000AB0BDE8F081FFF7ECFE50B1B8F8041012
:1029500024F8151004EB4501B8F806006D1C8882B8
:10296000EDB20A2DEFD3304902D000200870E6E71F
:102970006D1E00234FEA030004EB400634F810708C
:102980007288974203D9778024F810200123401CD5
:10299000C0B2A842F0DB002BEBD100264FEA0600C4
:1029A00004EB4002978AD38A9F4202D9D78293824E
:1029B0000126401CC0B2A842F2DB002EEDD1BDF8CA
:1029C0000600BDF8082003231044BDF80A20104477
:1029D000B0FBF3F082B2A8F80420BDF81A40BDF8AD
:1029E0001C5001202C44BDF81E502C44B4FBF3F3C2
:1029F0009BB2A8F80630C1E901230870A0E710B522
:102A00004020FEF787F8002805D04020FEF790F818
:102A1000BDE8104084E710BD003C0040000C0240BF
:102A20006000002000080240540000202DE9F04F13
:102A300097B001211720FEF7E2FC01210846FEF7BE
:102A4000E8FC0D220621FE48FEF795FBDFF8F49323
:102A50000D2206214846FEF78EFB0D22072148462F
:102A6000FEF789FBDFF8E0A30D2200215046FEF7B8
:102A700082FB0D2201215046FEF77DFB0D22042131
:102A80005046FEF778FBDFF8C4B30D220621584606
:102A9000FEF771FB0D2205215046FEF76CFB0D225F
:102AA00006215046FEF767FB0D2207215846FEF728
:102AB00062FB0D220421E248FEF75DFB02278DF840
:102AC00040704FF003088DF841800024C0268DF837
:102AD000424001250F968DF843500FA94846FEF756
:102AE000C1FA73200F900FA95046FEF7BBFA0FA949
:102AF00058460F96FEF7B6FA50200F908DF84070AA
:102B00008DF842400FA9CE48FEF7ACFA2020ADF870
:102B100048008020ADF84A004020ADF84C00ADF8E8
:102B20004440ADF84640ADF84E40ADF8504011A8D5
:102B3000FDF76DFD01210846FDF7CDFDF000FDF725
:102B400003FD4E208DF854008DF855508DF85650E9
:102B50008DF8575015A8FDF7FCFC01218805FEF7FC
:102B60004EFCBB4E3046FDF7E3FD68060090B948C9
:102B70000190B94802A931C12803CDE9064080007F
:102B8000089080110990059440020A900420CDE934
:102B90000C840B90694630460E94FDF751FE17B039
:102BA000BDE8F08F70B516460C46054601F0ADFB4A
:102BB00001F0B0FB284601F03BFC01F019FCFF28B6
:102BC00010D0E0B201F034FC01F012FCFF2809D073
:102BD000304601F02DFC01F00BFCFF2802D001F083
:102BE000B6FB002070BD10B50220FDF788FB122255
:102BF00000216020FFF7D6FF0220FDF780FB802236
:102C000001216020FFF7CEFF0220FDF778FB802234
:102C100002216020FFF7C6FF0220FDF770FB0222B1
:102C200003216020FFF7BEFF0220FDF768FB0322AF
:102C300004216020FFF7B6FF0220FDF760FB392278
:102C400005216020FFF7AEFF0220FDF758FB392277
:102C500006216020FFF7A6FF0220FDF750FB392276
:102C600007216020FFF79EFF0220FDF748FB382276
:102C700008216020FFF796FF0220FDF740FB0322AA
:102C800009216020FFF78EFF0220FDF738FB962216
:102C90000A216020FFF786FF0220FDF730FB572254
:102CA0000B216020FFF77EFF0220FDF728FB0022AA
:102CB0000C216020FFF776FF0220FDF720FB0022A9
:102CC0000D216020FFF76EFF0220FDF718FB0122A7
:102CD0000E216020FFF766FF0220FDF710FB0022A7
:102CE0000F216020FFF75EFF0220FDF708FB7B222B
:102CF00010216020FFF756FF0220FDF700FB0022A5
:102D000011216020FFF74EFF0220FDF7F8FA632241
:102D100012216020FFF746FF0220FDF7F0FAEF22B4
:102D200013216020FFF73EFF0220FDF7E8FA2A2278
:102D300014216020FFF736FF0220FDF7E0FA0022A1
:102D400015216020FFF72EFF0220FDF7D8FA24227C
:102D500016216020FFF726FF0220FDF7D0FA182287
:102D600017216020FFF71EFF0220FDF7C8FA04229A
:102D700018216020FFF716FF0220FDF7C0FA01229C
:102D800019216020FFF70EFF0220FDF7B8FA81221B
:102D90001A216020FFF706FF0220FDF7B0FA00229B
:102DA0001B216020FFF7FEFE0220FDF7A8FA7F221C
:102DB0001C216020FFF7F6FE0220FDF7A0FAA222F8
:102DC0001D216020FFF7EEFE0220FDF798FA002299
:102DD0001E216020FFF7E6FE0220FDF790FA002298
:102DE0001F216020FFF7DEFE0220FDF788FA802217
:102DF00020216020FFF7D6FE0220FDF780FA802216
:102E000021216020FFF7CEFE0220FDF778FA802214
:102E100022216020FFF7C6FE0220FDF770FA802213
:102E200023216020FFF7BEFE0220FDF768FA602232
:102E300024211046FFF7B6FE0220FDF760FA0DE0F0
:102E4000000002400008024000100240000402405E
:102E50002864024028000550000002603622252127
:102E60006020FFF79FFE0220FDF749FA722226211B
:102E70006020FFF797FE0220FDF741FA0822272184
:102E80006020FFF78FFE0220FDF739FA0822282183
:102E90006020FFF787FE0220FDF731FA1522292175
:102EA0006020FFF77FFE0220FDF729FA00222A2189
:102EB0006020FFF777FE0220FDF721FA00222B2188
:102EC0006020FFF76FFE0220FDF719FA08222C217F
:102ED0006020FFF767FE0220FDF711FA00222D2186
:102EE0006020FFF75FFE0220FDF709FA00222E2185
:102EF0006020FFF757FE0220FDF701FA38222F214C
:102F00006020FFF74FFE0220FDF7F9F9082230217B
:102F10006020FFF747FE0220FDF7F1F93022312152
:102F20006020FFF73FFE0220FDF7E9F9122232216F
:102F30006020FFF737FE0220FDF7E1F90022332180
:102F40006020FFF72FFE0220FDF7D9F93F22342140
:102F50006020FFF727FE0220FDF7D1F9002235217E
:102F60006020FFF71FFE0220FDF7C9F93A22362143
:102F70006020FFF717FE0220FDF7C1F90422372178
:102F80006020FFF70FFE0220FDF7B9F97222382109
:102F90006020FFF707FE0220FDF7B1F95722392123
:102FA0006020FFF7FFFD0220FDF7A9F9CA223A21B0
:102FB0006020FFF7F7FD0220FDF7A1F904223B2175
:102FC0006020FFF7EFFD0220FDF799F90C223C216C
:102FD0006020FFF7E7FD0220FDF791F999223D21DE
:102FE0006020FFF7DFFD0220FDF789F902223E2174
:102FF0006020FFF7D7FD0220FDF781F9C1223F21B4
:103000006020FFF7CFFD0220FDF779F9D0224021A3
:103010006020FFF7C7FD0220FDF771F9412211463C
:103020006020FFF7BFFD0220FDF769F9C0224221B1
:103030006020FFF7B7FD0220FDF761F90A22432166
:103040006020FFF7AFFD0220FDF759F9F02244217F
:103050006020FFF7A7FD0220FDF751F94622452128
:103060006020FFF79FFD0220FDF749F9622246210B
:103070006020FFF797FD0220FDF741F92A22472142
:103080006020FFF78FFD0220FDF739F93C2248212F
:103090006020FFF787FD0220FDF731F94822492122
:1030A0006020FFF77FFD0220FDF729F9EC224A217D
:1030B0006020FFF777FD0220FDF721F9FC224B216C
:1030C0006020FFF76FFD0220FDF719F97F224C21E8
:1030D0006020FFF767FD0220FDF711F97F224D21E7
:1030E0006020FFF75FFD0220FDF709F97F224E21E6
:1030F0006020FFF757FD0220FDF701F998224F21CC
:103100006020FFF74FFD0220FDF7F9F898225021CB
:103110006020FFF747FD0220FDF7F1F80022512162
:103120006020FFF73FFD0220FDF7E9F82822522139
:103130006020FFF737FD0220FDF7E1F870225321F0
:103140006020FFF72FFD0220FDF7D9F898225421C7
:103150006020FFF727FD0220FDF7D1F8002255215E
:103160006020FFF71FFD0220FDF7C9F84822562115
:103170006020FFF717FD0220FDF7C1F880225721DC
:103180006020FFF70FFD0220FDF7B9F81A22582141
:103190006020FFF707FD0220FDF7B1F885225921D5
:1031A0006020FFF7FFFC0220FDF7A9F8A9225A21B1
:1031B0006020FFF7F7FC0220FDF7A1F864225B21F5
:1031C0006020FFF7EFFC0220FDF799F884225C21D4
:1031D0006020FFF7E7FC0220FDF791F853225D2104
:1031E0006020FFF7DFFC0220FDF789F80E225E2148
:1031F0006020FFF7D7FC0220FDF781F8F0225F2165
:103200006020FFF7CFFC0220FDF779F86021F02263
:103210000846FFF7C7FC0220FDF771F8F022612194
:103220006020FFF7BFFC0220FDF769F80022622151
:103230006020FFF7B7FC0220FDF761F80022632150
:103240006020FFF7AFFC0220FDF759F8022264214D
:103250006020FFF7A7FC0220FDF751F8202265212E
:103260006020FFF79FFC0220FDF749F8002266214D
:103270006020FFF797FC0220FDF741F880226721CC
:103280006020FFF78FFC0220FDF739F880226821CB
:103290006020FFF787FC0220FDF731F80A22692140
:1032A0006020FFF77FFC0220FDF729F800226A2149
:1032B0006020FFF777FC0220FDF721F80A226B213E
:1032C0006020FFF76FFC0220FDF719F804226C2143
:1032D0006020FFF767FC0220FDF711F855226D21F1
:1032E0006020FFF75FFC0220FDF709F800226E2145
:1032F0006020FFF757FC0220FDF701F89D226F21A7
:103300006020FFF74FFC0220FCF7F9FF212270211B
:103310006020FFF747FC0220FCF7F1FF78227121C3
:103320006020FFF73FFC0220FCF7E9FF1122722129
:103330006020FFF737FC0220FCF7E1FF0122732138
:103340006020FFF72FFC0220FCF7D9FF1022742128
:103350006020FFF727FC0220FCF7D1FF1022752127
:103360006020FFF71FFC0220FCF7C9FF0122762135
:103370006020FFF717FC0220FCF7C1FF0222772133
:103380006020FFF70FFC0220FCF7B9FF282278210C
:103390006020FFF707FC0220FCF7B1FF0022792133
:1033A0006020FFF7FFFB0220FCF7A9FF12227A2121
:1033B0006020FFF7F7FB0220FCF7A1FF08227B212A
:1033C0006020FFF7EFFB0220FCF799FF16227C211B
:1033D0006020FFF7E7FB0220FCF791FF30227D2100
:1033E0006020FFF7DFFB0220FCF789FF5E227E21D1
:1033F0006020FFF7D7FB0220FCF781FF72227F21BC
:103400006020FFF7CFFB0220FCF779FF82228021AA
:103410006020FFF7C7FB0220FCF771FF8E2281219D
:103420006020FFF7BFFB0220FCF769FF9A22822190
:103430006020FFF7B7FB0220FCF761FFA422832185
:103440006020FFF7AFFB0220FCF759FFAC2284217C
:103450006020FFF7A7FB0220FCF751FFB82285216F
:103460006020FFF79FFB0220FCF749FFC322862163
:103470006020FFF797FB0220FCF741FFD62287214F
:103480006020FFF78FFB0220FCF739FFE62288213E
:103490006020FFF787FB0220FCF731FFF222892131
:1034A0006020FFF77FFB0220FCF729FF24228A21FE
:1034B0006020FFF777FB0220FCF721FF04228B211D
:1034C0006020FFF76FFB0220FCF719FF80228C21A0
:1034D0006020FFF767FB0220FCF711FF71229021AB
:1034E0006020FFF75FFB0220FCF709FF6F229121AC
:1034F0006020FFF757FB0220FCF701FF02229D210D
:103500006020FFF74FFB0220FCF7F9FE02229E210C
:103510006020FFF747FB0220FCF7F1FE7A229F2193
:103520006020FFF73FFB0220FCF7E9FE6D22A0219F
:103530006020FFF737FB0220FCF7E1FE4022A121CB
:103540006020FFF72FFB0220FCF7D9FE9D22A2216D
:103550006020FFF727FB0220FCF7D1FE5022A421B8
:103560006020FFF71FFB0220FCF7C9FE6822A5219F
:103570006020FFF717FB0220FCF7C1FE8022A62186
:103580006020FFF70FFB0220FCF7B9FEC122A82143
:103590006020FFF707FB0220FCF7B1FEEF22A92114
:1035A0006020FFF7FFFA0220FCF7A9FE9222AA2171
:1035B0006020FFF7F7FA0220FCF7A1FE0422AB21FE
:1035C0006020FFF7EFFA0220FCF799FE8022AC2181
:1035D0006020FFF7E7FA0220FCF791FE8022AD2180
:1035E0006020FFF7DFFA0220FCF789FE8022AE217F
:1035F0006020FFF7D7FA0220FCF781FE8022AF217E
:103600006020FFF7CFFA0220FCF779FEF222B22108
:103610006020FFF7C7FA0220FCF771FE2022B321D9
:103620006020FFF7BFFA0220FCF769FE2022B421D8
:103630006020FFF7B7FA0220FCF761FE0022B521F7
:103640006020FFF7AFFA0220FCF759FEAF22B62147
:103650006020FFF7A7FA0220FCF751FEEE22B72107
:103660006020FFF79FFA0220FCF749FEEE22B82106
:103670006020FFF797FA0220FCF741FE0C22B921E7
:103680006020FFF78FFA0220FCF739FEAE22BB2143
:103690006020FFF787FA0220FCF731FE7C22BC2174
:1036A0006020FFF77FFA0220FCF729FE7D22BD2172
:1036B0006020FFF777FA0220FCF721FE7E22BE2170
:1036C0006020FFF76FFA0220FCF719FE7F22BF216E
:1036D0006020FFF767FA0220FCF711FEAA22C02142
:1036E0006020FFF75FFA0220FCF709FEC022C1212B
:1036F0006020FFF757FA0220FCF701FE0122C221E9
:103700006020FFF74FFA0220FCF7F9FD4E22C3219B
:103710006020FFF747FA0220FCF7F1FD2E22C521B9
:103720006020FFF73FFA0220FCF7E9FD0522C621E1
:103730006020FFF737FA0220FCF7E1FD8122C72164
:103740006020FFF72FFA0220FCF7D9FD0622C821DE
:103750006020FFF727FA0220FCF7D1FDE022C92103
:103760006020FFF71FFA0220FCF7C9FDE822CA21FA
:103770006020FFF717FA0220FCF7C1FDF022CB21F1
:103780006020FFF70FFA0220FCF7B9FDD822CC2108
:103790006020FFF707FA0220FCF7B1FD9322CD214C
:1037A0006020FFF7FFF90220FCF7A9FDE322CE21FC
:1037B0006020FFF7F7F90220FCF7A1FD7422CF216A
:1037C0006020FFF7EFF9BDE810400220FCF797BD3D
:1037D00070B50D46044600F098FD00F09BFD2046B4
:1037E00000F026FE00F004FEFF2818D0E8B200F03A
:1037F0001FFE00F0FDFDFF2811D000F0A8FD00F035
:1038000089FD641CE0B200F013FE00F0F1FDFF281A
:1038100005D000F034FE044600F099FD204670BD4E
:1038200010B504461C216020FFF7D2FF20701D2137
:103830006020FFF7CDFF60700B216020FFF7C8FF0D
:10384000A0700A216020FFF7C3FFE07010BD1CB517
:1038500001210420FDF7D3FD4FF4007000900220F9
:103860008DF8040003208DF8050000208DF8060077
:10387000FF4C8DF8070069462046FDF7F3FB002258
:1038800009212046FDF777FC0020FDF716FD0521F4
:10389000F020FDF70BFDA1044800FDF71DFD012000
:1038A000FDF70BFD3B20FDF7A7FC0028FAD01CBD5F
:1038B00038B5FFF7CCFF00F0FDFC012042F2107498
:1038C000401CA042FCDB802212216020FFF76AF935
:1038D000FF281AD00220401CA042FCDB6846FFF7FC
:1038E0009FFFFFF780F9632212216020FFF75AF94A
:1038F000D02240216020FFF755F9082215216020D1
:10390000FFF750F9FFF792F8002038BD802212210E
:103910006020FFF747B910B50220FCF7F0FC002249
:1039200011466020FFF73EF90220FCF7E8FC8022F8
:1039300001216020FFF736F90220FCF7E0FC80222D
:1039400002216020FFF72EF90220FCF7D8FC0222AA
:1039500003216020FFF726F90220FCF7D0FC0322A8
:1039600004216020FFF71EF90220FCF7C8FC0122A9
:1039700009216020FFF716F90220FCF7C0FC57224E
:103980000B216020FFF70EF90220FCF7B8FC612242
:103990000E216020FFF706F90220FCF7B0FC402260
:1039A0000F216020FFF7FEF80220FCF7A8FC01229F
:1039B00011216020FFF7F6F80220FCF7A0FC62223C
:1039C00012216020FFF7EEF80220FCF798FCC722D6
:1039D00013216020FFF7E6F80220FCF790FC3A2262
:1039E00014216020FFF7DEF80220FCF788FC082293
:1039F00015216020FFF7D6F80220FCF780FC242276
:103A000016216020FFF7CEF80220FCF778FC182280
:103A100017216020FFF7C6F80220FCF770FC042293
:103A200018216020FFF7BEF80220FCF768FC012295
:103A300019216020FFF7B6F80220FCF760FC812214
:103A40001A216020FFF7AEF80220FCF758FC202274
:103A50001E216020FFF7A6F80220FCF750FC3C2254
:103A600024216020FFF79EF80220FCF748FC362254
:103A700025216020FFF796F80220FCF740FC722217
:103A800026216020FFF78EF80220FCF738FC082280
:103A900027216020FFF786F80220FCF730FC08227F
:103AA00028216020FFF77EF80220FCF728FC152271
:103AB00029216020FFF776F80220FCF720FC002285
:103AC0002A216020FFF76EF80220FCF718FC002284
:103AD0002B216020FFF766F80220FCF710FC08227B
:103AE0002C216020FFF75EF80220FCF708FCA422DE
:103AF00032216020FFF756F80220FCF700FC00227C
:103B000033216020FFF74EF80220FCF7F8FB3F223C
:103B100034216020FFF746F80220FCF7F0FB00227A
:103B200035216020FFF73EF80220FCF7E8FB3A223F
:103B300036216020FFF736F80220FCF7E0FB722206
:103B400038216020FFF72EF80220FCF7D8FB57221F
:103B500039216020FFF726F80220FCF7D0FBCC22A9
:103B60003A216020FFF71EF80220FCF7C8FB042270
:103B70003B216020FFF716F80220FCF7C0FB9922DA
:103B80003D216020FFF70EF80220FCF7B8FB0E2263
:103B90003E216020FFF706F80220FCF7B0FBC122AF
:103BA0003F216020FEF7FEFF0220FCF7A8FBC022A9
:103BB00040216020FEF7F6FF0220FCF7A0FB412227
:103BC00011466020FEF7EEFF0220FCF798FBC022B2
:103BD00042216020FEF7E6FF0220FCF790FB0A225C
:103BE00043216020FEF7DEFF0220FCF788FBF02275
:103BF00044216020FEF7D6FF0220FCF780FB46221E
:103C000045216020FEF7CEFF0220FCF778FB622200
:103C100046216020FEF7C6FF0220FCF770FB2A2237
:103C200047216020FEF7BEFF0220FCF768FB3C2224
:103C300048216020FEF7B6FF0220FCF760FBFC2263
:103C40004A216020FEF7AEFF0220FCF758FBFC2261
:103C50004B216020FEF7A6FF0220FCF750FB7F22DD
:103C60004C216020FEF79EFF0220FCF748FB01E09C
:103C7000000802407F224D216020FEF793FF0220C2
:103C8000FCF73DFB7F224E216020FEF78BFF0220D8
:103C9000FCF735FB98224F216020FEF783FF0220BE
:103CA000FCF72DFB982250216020FEF77BFF0220BD
:103CB000FCF725FB002251216020FEF773FF022054
:103CC000FCF71DFB282252216020FEF76BFF02202B
:103CD000FCF715FB702253216020FEF763FF0220E2
:103CE000FCF70DFB982254216020FEF75BFF0220B9
:103CF000FCF705FB1A2258216020FEF753FF022033
:103D0000FCF7FDFA852259216020FEF74BFF0220C7
:103D1000FCF7F5FAA9225A216020FEF743FF0220A2
:103D2000FCF7EDFA64225B216020FEF73BFF0220E6
:103D3000FCF7E5FA84225C216020FEF733FF0220C5
:103D4000FCF7DDFA53225D216020FEF72BFF0220F5
:103D5000FCF7D5FA0E225E216020FEF723FF022039
:103D6000FCF7CDFAF0225F216020FEF71BFF022056
:103D7000FCF7C5FA6021F0220846FEF713FF022087
:103D8000FCF7BDFAF02261216020FEF70BFF022054
:103D9000FCF7B5FA002262216020FEF703FF022043
:103DA000FCF7ADFA002263216020FEF7FBFE022043
:103DB000FCF7A5FA022264216020FEF7F3FE022040
:103DC000FCF79DFA202265216020FEF7EBFE022021
:103DD000FCF795FA002266216020FEF7E3FE022040
:103DE000FCF78DFA0A2269216020FEF7DBFE022033
:103DF000FCF785FA1A226B216020FEF7D3FE022021
:103E0000FCF77DFA04226C216020FEF7CBFE022035
:103E1000FCF775FA55226D216020FEF7C3FE0220E3
:103E2000FCF76DFA00226E216020FEF7BBFE022037
:103E3000FCF765FA9D226F216020FEF7B3FE022099
:103E4000FCF75DFA212270216020FEF7ABFE022014
:103E5000FCF755FA782271216020FEF7A3FE0220BC
:103E6000FCF74DFA222272216020FEF79BFE022011
:103E7000FCF745FA022273216020FEF793FE022030
:103E8000FCF73DFA102274216020FEF78BFE022021
:103E9000FCF735FA102275216020FEF783FE022020
:103EA000FCF72DFA012276216020FEF77BFE02202E
:103EB000FCF725FA022277216020FEF773FE02202C
:103EC000FCF71DFA12227A216020FEF76BFE022019
:103ED000FCF715FA08227B216020FEF763FE022022
:103EE000FCF70DFA16227C216020FEF75BFE022013
:103EF000FCF705FA30227D216020FEF753FE0220F8
:103F0000FCF7FDF95E227E216020FEF74BFE0220C9
:103F1000FCF7F5F972227F216020FEF743FE0220B4
:103F2000FCF7EDF9822280216020FEF73BFE0220A3
:103F3000FCF7E5F98E2281216020FEF733FE022096
:103F4000FCF7DDF99A2282216020FEF72BFE022089
:103F5000FCF7D5F9A42283216020FEF723FE02207E
:103F6000FCF7CDF9AC2284216020FEF71BFE022075
:103F7000FCF7C5F9B82285216020FEF713FE022068
:103F8000FCF7BDF9C32286216020FEF70BFE02205C
:103F9000FCF7B5F9D62287216020FEF703FE022048
:103FA000FCF7ADF9E62288216020FEF7FBFD022038
:103FB000FCF7A5F9F22289216020FEF7F3FD02202B
:103FC000FCF79DF924228A216020FEF7EBFD0220F8
:103FD000FCF795F980228C216020FEF7E3FD02209A
:103FE000FCF78DF97D2290216020FEF7DBFD022099
:103FF000FCF785F97B2291216020FEF7D3FD02209A
:10400000FCF77DF902229D216020FEF7CBFD022006
:10401000FCF775F902229E216020FEF7C3FD022005
:10402000FCF76DF97A229F216020FEF7BBFD02208C
:10403000FCF765F97922A0216020FEF7B3FD02208C
:10404000FCF75DF94022A1216020FEF7ABFD0220C4
:10405000FCF755F95022A4216020FEF7A3FD0220B1
:10406000FCF74DF96822A5216020FEF79BFD022098
:10407000FCF745F94A22A6216020FEF793FD0220B5
:10408000FCF73DF9C122A8216020FEF78BFD02203C
:10409000FCF735F9EF22A9216020FEF783FD02200D
:1040A000FCF72DF99222AA216020FEF77BFD022069
:1040B000FCF725F90422AB216020FEF773FD0220F6
:1040C000FCF71DF98022AC216020FEF76BFD022079
:1040D000FCF715F98022AD216020FEF763FD022078
:1040E000FCF70DF98022AE216020FEF75BFD022077
:1040F000FCF705F98022AF216020FEF753FD022076
:10410000FCF7FDF8F222B2216020FEF74BFD022001
:10411000FCF7F5F82022B3216020FEF743FD0220D2
:10412000FCF7EDF82022B4216020FEF73BFD0220D1
:10413000FCF7E5F80022B5216020FEF733FD0220F0
:10414000FCF7DDF8AF22B6216020FEF72BFD022040
:10415000FCF7D5F8AF22B6216020FEF723FD022040
:10416000FCF7CDF8AE22BB216020FEF71BFD02203C
:10417000FCF7C5F87F22BC216020FEF713FD02206A
:10418000FCF7BDF87F22BD216020FEF70BFD022069
:10419000FCF7B5F87F22BE216020FEF703FD022068
:1041A000FCF7ADF87F22BF216020FEF7FBFC022068
:1041B000FCF7A5F87F22BF216020FEF7F3FC022068
:1041C000FCF79DF8AA22C0216020FEF7EBFC02203C
:1041D000FCF795F8C022C1216020FEF7E3FC022025
:1041E000FCF78DF80122C2216020FEF7DBFC0220E3
:1041F000FCF785F84E22C3216020FEF7D3FC022095
:10420000FCF77DF80522C6216020FEF7CBFC0220DA
:10421000FCF775F88222C7216020FEF7C3FC02205C
:10422000FCF76DF8E022C9216020FEF7BBFC0220FC
:10423000FCF765F8E822CA216020FEF7B3FC0220F3
:10424000FCF75DF8F022CB216020FEF7ABFC0220EA
:10425000FCF755F8D822CC216020FEF7A3FC022001
:10426000FCF74DF89322CD216020FEF79BFCBDE8C2
:1042700010400220FCF743B8024611216020FEF7EF
:1042800091BC024612216020FEF78CBC024612212E
:104290006020FEF787BC0A4601466020FEF782BC1C
:1042A000024632216020FEF77DBC0246402160209C
:1042B000FEF778BC7CB501210220FDF7A0F80121B2
:1042C0000820FDF79CF801248DF8044003254FF4E5
:1042D00000708DF80550984E00908DF806408DF8CE
:1042E000074069463046FCF7BDFE8DF804408DF866
:1042F0000550002120028DF8061000908DF807105F
:1043000069463046FCF7AEFE7CBD4FF4FA70401EA5
:10431000FDD1704770B5884D4FF400742146284692
:10432000FCF71AFF661031462846FCF715FFFFF729
:10433000ECFF21462846FCF711FFFFF7E6FF314668
:104340002846FCF70BFFFFF7E0FF002070BD70B5BB
:10435000794D4FF4007421462846FCF7FFFEFFF725
:10436000D4FF61102846FCF7F7FEFFF7CEFF214689
:104370002846FCF7F1FEBDE87040C6E770B56E4D0B
:104380004FF4807421462846FCF7E8FEFFF7BDFF96
:1043900061002846FCF7E2FEFFF7B7FF21462846FA
:1043A000FCF7DAFEFFF7B1FF21462846FCF7D6FE00
:1043B000BDE87040A9E770B55F4D4FF480742146A9
:1043C0002846FCF7CBFEFFF7A0FF61002846FCF76C
:1043D000C3FEFFF79AFF21462846FCF7BDFEFFF714
:1043E00094FF21462846FCF7B9FEBDE870408CE7F3
:1043F00070B5514C4FF4007529462046FCF7ACFED1
:10440000FFF783FFA61531462046FCF7A5FEFFF710
:104410007CFF29462046FCF78BFE08B1FF2070BDCB
:1044200031462046FCF79AFEFFF76FFF002070BD73
:104430002DE9F041404F002405464FF40078BE15A9
:1044400005FA04F000064146384602D5FCF784FE22
:1044500001E0FCF783FEFFF758FF31463846FCF7D2
:104460007BFEFFF752FF31463846FCF777FEFFF739
:104470004CFF641CE4B2082CE2D3BDE8F0812DE9C6
:10448000F0470825DFF8B080AE01002431464046F1
:10449000FCF762FEB1466F01464614E06006040E6A
:1044A00039463046FCF75AFEFFF72FFF39463046B3
:1044B000FCF752FEFFF729FF49463046FCF738FE6D
:1044C00008B144F001042800A5F10105EDB2E5D1E1
:1044D00039463046FCF742FE2046BDE8F08770B50D
:1044E0000C460546FFF716FF08B32846FFF7A0FF66
:1044F000FFF77EFFE8B1C4F30720FFF799FFFFF74E
:1045000077FFE0B2FFF794FFFFF772FFFFF702FFBC
:1045100045F00100FFF78CFFFFF76AFFFFF7AFFFE1
:104520000446FFF748FFFFF712FF204670BDFF204B
:1045300070BDFFF70CFFFAE70004024070477047B8
:104540007047754600F028F8AE46050069465346A8
:1045500020F00700854618B020B5FBF773FEBDE8D4
:1045600020404FF000064FF000074FF000084FF0DA
:10457000000B21F00701AC46ACE8C009ACE8C0096B
:10458000ACE8C009ACE8C0098D4670470446AFF3FB
:1045900000802046FBF741FE00487047780000206D
:1045A00001491820ABBEFEE7260002007047491003
:1045B00058BFC1F140415B1058BFC3F140438B422B
:1045C000EFF30080704710F0004248BF4042B0FA5D
:1045D00080F310FA03F10AD0C3F11D0303F58063E1
:1045E0004FEA415002EB035202EBD12170474FF0EA
:1045F00000007047B0FA80F310FA03F10AD0C3F15B
:104600001D0303F580634FEA41504FEA035202EB6A
:10461000D12170474FF000007047000051EA030CB1
:1046200017D41CF5801F58BFBCF5801F00F1068011
:10463000994218BF704708BF9042704707D711F5DD
:10464000801F58BF13F5801F19D4994270478942C3
:1046500070471CF5801F08D5BCF5801FF7D58B422D
:1046600018BF704708BF824270474FF4001C1CEB14
:10467000410F38BF1CEB430F01D28B42704770B51E
:1046800000F008F8922449004FF000514FF0805399
:10469000FFF78DBF0EF1020E2EF0030E5EF8046BD5
:1046A000364205D4012A43EB030515F5001F12D845
:1046B000012841EB010C1CF5001F0CD80ED14FEA6C
:1046C000D17C15F5001F0CEB4C0C0CF1020C08BF53
:1046D0004CEBD37C04E04FF0080C01E04FEAD37CB4
:1046E0000CEB4C0526FA05F606F00706B6F1040CAD
:1046F00006D20EEB860CBDE870404CF0010C604712
:10470000DFE80CF0090B02024FF000414FF000000F
:10471000A1F5002170BD19461046012851EB010496
:1047200018BFD4F5001484BF002001F0004170BD13
:1047300053EA010C17D41CF5801F58BFBCF5801F2D
:1047400000F106808B4218BF704708BF8242704755
:1047500007D713F5801F58BF11F5801F19D48B425E
:1047600070479B4270471CF5801F08D5BCF5801F21
:10477000F7D5994218BF704708BF904270474FF471
:10478000001C1CEB430F38BF1CEB410F01D29942B8
:1047900070470FB40CBC03BCFFF771BF4FF0407003
:1047A000E1EE100A70470000000006000100010061
:1047B0000100000000100020004000800800000000
:1047C00008000000080000000800000000000000D1
:1047D00000000000000000000000000000000000D9
:1047E00000000000000000000000000000000000C9
:1047F0000000000000000000000000000000800138
:1048000080018001800180018001800180018001A0
:104810008001800180018001000000008001800192
:104820000000000000000000000000000000000088
:10483000CC00CC00CC00CC00CC00CC0000000000B0
:104840000000000000000000000000000000000068
:104850000000000000000000000000000000000058
:104860000000000000000000600C600C600C3006CE
:104870003006FE1FFE1F300638071803FE1FFE1FFE
:10488000180318038C018C018C01000000008000CB
:10489000E003F80F9C0E8C1C8C188C009800F8011B
:1048A000E007800E801C8C188C189C18B80CF00F38
:1048B000E003800080000000000000000000000015
:1048C00000000E181B0C110C110611061103110328
:1048D0009B018E01C038C06C604460443044304459
:1048E0001844186C0C380000000000000000E001C3
:1048F000F0033807180618063003F001F000F8003E
:104900009C310E33061E061C061C063FFC73F0216C
:104910000000000000000000000000000000000097
:104920000C000C000C000C000C000C00000000003F
:104930000000000000000000000000000000000077
:104940000000000000000000000000000000000265
:1049500000038001C000C000600060003000300033
:104960003000300030003000300030006000600067
:10497000C000C00080010003000200000000200011
:104980006000C000800180010003000300060006F3
:1049900000060006000600060006000600030003ED
:1049A00080018001C00060002000000000000000C5
:1049B0000000000000000000C000C000D806F8079A
:1049C000E001300338070000000000000000000094
:1049D00000000000000000000000000000000000D7
:1049E00000000000000000008001800180018001C3
:1049F0008001FC3FFC3F800180018001800180013B
:104A000000000000000000000000000000000000A6
:104A10000000000000000000000000000000000096
:104A20000000000000000000000000000000800105
:104A30008001000100018000000000000000000073
:104A40000000000000000000000000000000000066
:104A500000000000E007E007000000000000000088
:104A60000000000000000000000000000000000046
:104A70000000000000000000000000000000000036
:104A80000000000000000000000000000000C00066
:104A9000C000000000000000000000000000000C4A
:104AA000000C00060006000600030003000380035C
:104AB000800180018001C000C000C0006000600073
:104AC0000000000000000000000000000000E00303
:104AD000F007380E180C0C180C180C180C180C18C1
:104AE0000C180C180C180C18180C380EF007E003F2
:104AF00000000000000000000000000000000001B5
:104B00008001C001F00198018801800180018001CD
:104B1000800180018001800180018001800180018D
:104B20000000000000000000000000000000E003A2
:104B3000F80F180C0C180C1800180018000C0006C0
:104B400000038001C000600030001800FC1FFC1F43
:104B50000000000000000000000000000000E00174
:104B6000F807180E0C0C0C0C000C0006C003C00754
:104B7000000C001800180C180C18180CF807E003AB
:104B80000000000000000000000000000000000C19
:104B9000000E000F000F800DC00C600C600C300C7C
:104BA000180C0C0CFC3FFC3F000C000C000C000C23
:104BB0000000000000000000000000000000F80FEE
:104BC000F80F180018000C00EC03FC071C0E001C6A
:104BD0000018001800180C181C0C180EF807E00339
:104BE0000000000000000000000000000000C007FE
:104BF000F00F381C181818000C00CC03EC0F3C0EFA
:104C00001C1C0C180C180C18181C380EF007E003AC
:104C10000000000000000000000000000000FC1F79
:104C2000FC1F000C00060006000380038001C00189
:104C3000C000E00060006000700030003000300014
:104C40000000000000000000000000000000E00381
:104C5000F007380E180C180C180C3806F007F0077F
:104C6000180C0C180C180C180C18380CF80FE00362
:104C70000000000000000000000000000000E00351
:104C8000F007380E1C0C0C180C180C181C1C381EC5
:104C9000F81BE0190018000C000C1C0EF807F001BE
:104CA0000000000000000000000000000000000004
:104CB00000000000000000008001800100000000F2
:104CC00000000000000000000000000080018001E2
:104CD00000000000000000000000000000000000D4
:104CE00000000000000000008001800100000000C2
:104CF00000000000000000000000000080018001B2
:104D00000001000180000000000000000000000021
:104D10000000000000000000000000000010001C67
:104D2000800FE003F8001800F800E003800F001C7B
:104D30000010000000000000000000000000000063
:104D4000000000000000000000000000F81F00004C
:104D500000000000F81F000000000000000000003C
:104D60000000000000000000000000000000000043
:104D700000000000000000000000000008003800F3
:104D8000F001C007001F0018001FC007F001380025
:104D90000800000000000000000000000000E00328
:104DA000F80F180C0C180C180018000C0006000363
:104DB0008001C000C000C00000000000C000C000B2
:104DC00000000000000000000000000000000000E3
:104DD000E00718180420C229224A11440944094452
:104DE000094409221113E20C024004201818E007BC
:104DF0000000000000000000000000000000800330
:104E00008003C006C006C006600C600C3018301865
:104E10003018F83FF83F1C700C600C6006C006C0EC
:104E20000000000000000000000000000000FC0383
:104E3000FC0F0C0C0C180C180C180C0CFC07FC0FBD
:104E40000C180C300C300C300C300C18FC1FFC070C
:104E50000000000000000000000000000000C0078B
:104E6000F01F38381C300C70066006000600060083
:104E700006000600060006600C701C30F01FE007FC
:104E80000000000000000000000000000000FE0321
:104E9000FE0F060E061806180630063006300630DD
:104EA00006300630063006180618060EFE0FFE0302
:104EB0000000000000000000000000000000FC3FB7
:104EC000FC3F0C000C000C000C000C00FC1FFC1F35
:104ED0000C000C000C000C000C000C00FC3FFC3F14
:104EE0000000000000000000000000000000F83F8B
:104EF000F83F18001800180018001800F81FF81FD5
:104F000018001800180018001800180018001800E1
:104F10000000000000000000000000000000E00FA2
:104F2000F83F3C780E6006E007C00300030003FE74
:104F300003FE03C007C006C00EC03CF0F83FE00F00
:104F400000000000000000000000000000000C3025
:104F50000C300C300C300C300C300C30FC3FFC3F73
:104F60000C300C300C300C300C300C300C300C3061
:104F700000000000000000000000000000008001B0
:104F80008001800180018001800180018001800119
:104F90008001800180018001800180018001800109
:104FA00000000000000000000000000000000006FB
:104FB00000060006000600060006000600060006C1
:104FC000000600060006180618063807F003E00180
:104FD000000000000000000000000000000006309B
:104FE0000618060C060606038601C6006600760053
:104FF000DE008E0106030606060C06180630066063
:105000000000000000000000000000000000180088
:1050100018001800180018001800180018001800D0
:10502000180018001800180018001800F81FF81FC2
:1050300000000000000000000000000000000EE082
:105040001EF01EF01EF036D836D836D836D866CCCC
:1050500066CC66CCC6C6C6C6C6C6C6C686C386C32A
:1050600000000000000000000000000000000C3004
:105070001C303C303C306C306C30CC30CC308C311F
:105080000C330C330C360C360C3C0C3C0C380C300E
:105090000000000000000000000000000000E00729
:1050A000F81F1C380E70066003C003C003C003C0A5
:1050B00003C003C003C006600E701C38F81FE00771
:1050C0000000000000000000000000000000FC0FD5
:1050D000FC1F0C380C300C300C300C300C18FC1F42
:1050E000FC070C000C000C000C000C000C000C0069
:1050F0000000000000000000000000000000E007C9
:10510000F81F1C380E70066003E003C003C003C024
:1051100003C003C007E006630E3F1C3CF83FE0F706
:1051200000C0000000000000000000000000FE0FB2
:10513000FE1F06380630063006300638FE1FFE0712
:1051400006030606060C061806180630063006602A
:105150000000000000000000000000000000E0036C
:10516000F80F1C0C0C180C180C001C00F803E00FB6
:10517000001E0038063006300E301C1CF80FE00709
:105180000000000000000000000000000000FE7FA2
:10519000FE7F80018001800180018001800180010B
:1051A00080018001800180018001800180018001F7
:1051B00000000000000000000000000000000C30B3
:1051C0000C300C300C300C300C300C300C300C30FF
:1051D0000C300C300C300C300C301818F81FE00775
:1051E000000000000000000000000000000003605C
:1051F0000630063006300C180C180C18180C180C59
:10520000380E30063006700760036003C001C0012D
:10521000000000000000000000000000000003602B
:10522000C361C361C3616633663366336633663315
:1052300066336C1B6C1B6C1B2C1A3C1E380E380E14
:1052400000000000000000000000000000000FE06F
:105250000C7018303018700C600EC007800380038B
:10526000C003E006700C301C18180C300E6007E00C
:10527000000000000000000000000000000003C06B
:1052800006600C301C383818300C6006E007C0038C
:105290008001800180018001800180018001800106
:1052A0000000000000000000000000000000FC7F83
:1052B000FC7F006000300018000C00060003800135
:1052C000C0006000300018000C000600FE7FFE7F6A
:1052D0000000000000000000000000000000E003EB
:1052E000E00360006000600060006000600060003B
:1052F00060006000600060006000600060006000AE
:10530000600060006000E003E00300000000300087
:105310003000600060006000C000C000C000C0013C
:1053200080018001800100030003000300060006E5
:105330000000000000000000000000000000E0038A
:10534000E003000300030003000300030003000365
:105350000003000300030003000300030003000335
:10536000000300030003E003E0030000000000006E
:10537000C001C00160036003600330063006180CF2
:10538000180C0000000000000000000000000000F9
:10539000000000000000000000000000000000000D
:1053A00000000000000000000000000000000000FD
:1053B0000000000000000000000000000000FFFFEF
:1053C000FFFF0000000000000000000000000C00D3
:1053D0000C000C000C000C000C0000000000000091
:1053E00000000000000000000000000000000000BD
:1053F00000000000000000000000000000000000AD
:105400000000000000000000F003F8071C0C0C0C6A
:10541000000FF00FF80C0C0C0C0C1C0FF80FF01810
:105420000000000000000000000000000000180064
:105430001800180018001800D803F80F380C1818B6
:1054400018181818181818181818380CF80FD80346
:10545000000000000000000000000000000000004C
:105460000000000000000000C003F007300E180C20
:105470001800180018001800180C300EF007C003B0
:105480000000000000000000000000000000001804
:105490000018001800180018C01BF01F301C181846
:1054A00018181818181818181818301CF01FC01BD6
:1054B00000000000000000000000000000000000EC
:1054C0000000000000000000C003F00F300C1818AE
:1054D000F81FF81F180018003818301CF00FC0070C
:1054E0000000000000000000000000000000800F2D
:1054F000C00FC000C000C000F007F007C000C0002F
:10550000C000C000C000C000C000C000C000C0009B
:10551000000000000000000000000000000000008B
:105520000000000000000000E00DF80F180E0C0C49
:105530000C0C0C0C0C0C0C0C0C0C180EF80FE00DD9
:10554000000C0C0C1C06F807F0010000000018000D
:105550001800180018001800D807F80F381C181881
:1055600018181818181818181818181818181818BB
:105570000000000000000000000000000000C0006B
:10558000C000000000000000C000C000C000C0005B
:10559000C000C000C000C000C000C000C000C0000B
:1055A0000000000000000000000000000000C0003B
:1055B000C000000000000000C000C000C000C0002B
:1055C000C000C000C000C000C000C000C000C000DB
:1055D000C000C000C000F8007800000000000C000F
:1055E0000C000C000C000C000C0C0C060C038C01C5
:1055F000CC006C00FC009C018C030C030C060C0C12
:105600000000000000000000000000000000C000DA
:10561000C000C000C000C000C000C000C000C0008A
:10562000C000C000C000C000C000C000C000C0007A
:10563000000000000000000000000000000000006A
:1056400000000000000000007C3CFF7EC7E383C137
:1056500083C183C183C183C183C183C183C183C12A
:10566000000000000000000000000000000000003A
:1056700000000000000000009807F80F381C181800
:10568000181818181818181818181818181818189A
:10569000000000000000000000000000000000000A
:1056A0000000000000000000C003F00F300C1818CC
:1056B00018181818181818181818300CF00FC003FC
:1056C00000000000000000000000000000000000DA
:1056D0000000000000000000D803F80F380C181874
:1056E00018181818181818181818380CF80FD803A4
:1056F0001800180018001800180000000000000032
:105700000000000000000000C01BF01F301C181833
:1057100018181818181818181818301CF01FC01B63
:105720000018001800180018001800000000000001
:105730000000000000000000B007F003700030001F
:1057400030003000300030003000300030003000D9
:105750000000000000000000000000000000000049
:105760000000000000000000E003F003380E180CF9
:105770003800F003C007000C180C380EF007E003E7
:105780000000000000000000000000000000000019
:105790008000C000C000C000F007F007C000C000DB
:1057A000C000C000C000C000C000C000C00780072B
:1057B00000000000000000000000000000000000E9
:1057C0000000000000000000181818181818181819
:1057D00018181818181818181818381CF01FE0197D
:1057E00000000000000000000000000000000000B9
:1057F00000000000000000000C18180C180C180C19
:10580000300630063006600360036003C001C0014B
:105810000000000000000000000000000000000088
:105820000000000000000000C141C141C36163638A
:10583000636363633636363636361C1C1C1C1C1CF0
:105840000000000000000000000000000000000058
:1058500000000000000000001C38381C300C6006FE
:1058600060036003600360036006300C381C1C3862
:105870000000000000000000000000000000000028
:1058800000000000000000001830301830187018B8
:10589000600C600CE00CC006C0068003800380032F
:1058A00080018001C001F0007000000000000000D5
:1058B0000000000000000000FC1FFC1F000C0006A0
:1058C00000038001C000600030001800FC1FFC1FB6
:1058D00000000000000000000000000000000003C5
:1058E0008001C000C000C000C000C000C000600057
:1058F0006000300060004000C000C000C000C00078
:10590000C000C00080010003000000000000800112
:10591000800180018001800180018001800180017F
:10592000800180018001800180018001800180016F
:105930008001800180018001800100000000600082
:10594000C000C0018001800180018001800100034E
:105950000003000600030001800180018001800136
:1059600080018001C0006000000000000000000015
:10597000000000000000000000000000F010F81F10
:10598000080F000000000000000000000000000000
:105990000000000000000000000000000000000007
:1059A0000000000000000000000000004000400077
:1059B000400040004000400000004000A000A00067
:1059C000A000000000000000000000000000240013
:1059D0002400FE004800FC00480048003800540045
:1059E0005000380014001400540038004400A8008F
:1059F000A800500014001A002A00240010002800FB
:105A00002800100074004C004C0030001000100002
:105A1000100000000000000000000000080010005E
:105A20001000100010001000100008001000080006
:105A3000080008000800080008001000000000002E
:105A4000240018003C0018002400000000000000A2
:105A5000100010007C00100010000000000000008A
:105A60000000000000000800080010000000000016
:105A7000000000003C0000000000000000000000EA
:105A800000000000000000001800180008000800D6
:105A90000800100010002000200020001800240042
:105AA000240024002400240024001800080018000A
:105AB000280008000800080008000800380044001A
:105AC000000004000800100020007C0018002400E2
:105AD00004001800040004002400180004000C0056
